:020000040800F2
:10000000680A002045010008BB1C000841180008D0
:10001000B91C00085D0200081F2500080000000050
:10002000000000000000000000000000DF1E0008CB
:100030005F02000800000000DD1E0008E11E00084D
:100040005F0100085F0100085F0100085F01000810
:100050005F0100085F0100085F0100085F01000800
:100060005F0100085F010008610200085F010008ED
:100070005F0100085F0100085F0100085F010008E0
:100080005F0100085F0100085F0100085F010008D0
:100090005F0100085F0100085F01000867020008B7
:1000A0005F0100085F0100085F0100085F010008B0
:1000B0005F0100085F0100085F0100085F010008A0
:1000C0005F0100085F0100085F0100085F01000890
:1000D0005F0100085F0100085F0100085F01000880
:1000E0005F0100085F0100085F0100085F01000870
:1000F0005F0100085F0100085F0100085F01000860
:100100005F0100085F0100085F0100085F0100084F
:10011000192200085F0100085F0100085F01000864
:100120005F0100085F0100085F0100085F0100082F
:10013000DFF80CD000F080F8004800470D2A0008D6
:10014000680A00200648804706480047FEE7FEE7A9
:10015000FEE7FEE7FEE7FEE7FEE7FEE7FEE7FEE777
:10016000551F000831010008D2B201E000F8012B50
:10017000491EFBD270470022F6E710B513460A4627
:1001800004461946FFF7F0FF204610BD30B505467E
:100190002A460B4612F8010B13F8014B08B1A04296
:1001A000F8D01CB1002802D06D1CF1E7284630BD04
:1001B000421C10F8011B0029FBD1801A704710B5B2
:1001C000002200E0521C835C8C5CA34201D1002B16
:1001D000F8D1D8B2E1B2401A10BD034611F8012B94
:1001E00000F8012B002AF9D11846704730B50546B2
:1001F0000020034600E05B1C934205D2EC5CC85C27
:10020000201A01D1002CF6D130BD30B50B46014685
:1002100000202022012409E021FA02F59D4205D3A5
:1002200003FA02F5491B04FA02F52844151EA2F14F
:100230000102F1DC30BD0000064C074D06E0E0682D
:1002400040F0010394E8070098471034AC42F6D31D
:10025000FFF772FF0C3900082C390008FEE77047E1
:10026000102000F0DBB910B5202000F0D7F94020B5
:1002700000F0D4F9BDE81040802000F0CFB901466D
:10028000002041292CD014DC212927D009DC112998
:1002900022D0122926D014292AD0182900D13120A1
:1002A0007047222920D0242924D02829F8D13420AD
:1002B0007047812922D007DC422917D044291BD05E
:1002C0004829F5D137207047822919D0842919D0BF
:1002D0008829F8D15120704741207047422070474B
:1002E00043207047332070473620704739207047CD
:1002F00032207047352070473820704744207047BF
:1003000045207047302070472DE9FF470025234FD7
:10031000A9462A460F21384600F085FA0F200090A2
:1003200011200190022003906946384600F082F9BE
:10033000F020009000200124CDE9010469463846F0
:1003400000F078F90426B84604FA06F7B9B2404638
:1003500000F064FA08B92F43FDB2761CF6B2082EFD
:10036000F2D3A5B101F0A4FB5FF0000604FA06F792
:10037000B9B2404600F052FA08B92F43FDB2761CDC
:10038000F6B2042EF2D32846FFF779FF814602F039
:10039000BBFA04B04846BDE8F08700000008014001
:1003A0002DE9F05F90F821100024022903D00421E8
:1003B0008163012485E001680A6822F00E020A6068
:1003C00001680A6822F001020A603F4E3E4FB215F2
:1003D000DFF8F4C0DFF8F090DFF8ECA0DFF8E8B069
:1003E000DFF8E4E00168783F13011502ACF1640C1A
:1003F000A9F15009AAF13C0AABF1280BAEF1140E99
:100400004FF48018B14227D9B9420ED0614512D0BD
:1004100049451DD0514518D0594518D0714501D1D5
:10042000424615E0294EB14201D1012210E0274E8B
:100430001436B14201D110220AE0244E2836B142CE
:1004400006D0224A3C32914201D11A4600E02A46A7
:100450001E49091F0A602BE0B94213D0614517D02D
:10046000494522D051451DD059451DD0714501D176
:1004700042461AE0B14202D14FF0807215E0134EAD
:10048000B14201D1012210E0104E1436B14201D127
:1004900010220AE00D4E2836B14206D00B4A3C32FB
:1004A000914201D11A4600E02A46074980394A6044
:1004B000012180F82110002180F82010416B01B14A
:1004C00088472046BDE8F09F8000024008040240B3
:1004D00031B500F0ADF9009C0546601C00D0641CED
:1004E00000F0A6F9401BA042FAD338BD2DE9F04731
:1004F000054600F09DF93E4C616B411AB1F5967FBF
:1005000034DB60632846FFF7FFFE0646394F30387C
:100510004FF0010907F1100809280AD801F0DEFBA5
:10052000C4F80490206B2A21395408F80060401C5C
:1005300020630025432E0BD0442E19D02D4F643F4D
:10054000452E20D0512E11D101F0C8FB656039E055
:1005500001F0C4FBC4F8049000204246216B02E085
:100560003D541554401C8842FADD2563BDE8F087F0
:1005700001F0B4FBC4F80490206B401E20633D548E
:1005800008F80050F2E701F0A9FB1A4918480622C2
:1005900010314230FFF72AFE174BDFF860804FF42E
:1005A00080510226C0B10122184600F03CF9002219
:1005B0004021404600F037F911A166600D4810381F
:1005C000FFF70BFE7D66BD66FD663D677D67BD6717
:1005D000FD67C7F88050C8E70022184600F023F9ED
:1005E00000228021404600F01EF908A16660E5E780
:1005F0000000002040050020000C014000100140D8
:10060000756E6C6F636B206661696C00756E6C6FE4
:10061000636B20737563636573730000044910B5E1
:100620000A68024202D00860FFF760FF10BD0000B8
:10063000140401402DE9F84FDFF8B8A100220AF1B7
:10064000040B144601274FF00F090BF1040E00BFF5
:100650000B6807FA04F52B40AB4274D1DFF898C160
:100660004E68A6EB0C0866452BD00DDC032E34D06B
:1006700005DC36B3012E19D0022E2FD11BE0112E2E
:1006800016D0122E2AD119E0B8F5881F19D006DC31
:10069000B8F5803F15D0B8F5801F1FD111E0B8F52F
:1006A000001F0ED0B8F5041F18D10AE0CA6815E083
:1006B000CA68121D12E0CA6808320FE0CA680C321C
:1006C0000CE08A682AB1012A4FF0080203D0456184
:1006D00004E0042202E0056100E00022FF2B01D8C3
:1006E000064601E000F104064FEA840501D9A5F1B0
:1006F0002005D6F800C009FA05F82CEA080C02FA21
:1007000005F54CEA050CC6F800C04D68ED006AD549
:100710003A4DAE6946F00106AE61AD6924F00306BC
:1007200005F001050095364D06EB050CDCF8085088
:10073000A6074FEA167809FA08F6B543314EB042DB
:1007400002D100261AE04EE02F4EB04201D1012620
:1007500014E02E4EB04201D102260FE02C4EB042E2
:1007600001D103260AE02B4EB04201D1042605E058
:10077000294EB04201D1052600E0062606FA08F609
:100780002E43CCF808604D68DAF80060ED0355465A
:1007900001D51E4300E09E432E604D68AD0305D594
:1007A000DBF800601E43CBF8006004E0DBF800508B
:1007B0009D43CBF800504D68DEF80060ED027546B1
:1007C00001D51E4300E09E432E604D68AD0205D565
:1007D000084D0C352E681E432E6004E0054E0C3685
:1007E00035689D433560641C102CFFF431AFBDE8C3
:1007F000F88F0000000401400000111000100240BA
:100800000000014000080140000C014000100140C0
:100810000014014000180140001C0140806808409D
:1008200000D0012070470AB1016170470904FBE75D
:1008300001480068704700005400002070B50400B3
:1008400004D094F83D00002510B106E0012070BDF1
:1008500084F83C50204600F011F9242084F83D0033
:100860002068016821F00101016000F08FFA33492E
:100870002268B0FBF1F15160314A6368934206D9B6
:100880004FF4967359434FF47A73B1FBF3F1236835
:10089000491C1962616891420BD84900B0FBF1F222
:1008A000C2F30B02042A01D2042019E0B0FBF1F0DC
:1008B00016E0A3689BB301EBC10202EB0112B0FB8F
:1008C000F2F242F48042120530D04BB301EBC10288
:1008D00002EB0111B0FBF1F040F4804040F4004025
:1008E0002168C861D4E90701084321680860D4E998
:1008F0000310084321688860D4E905010843216892
:10090000C8602068016841F0010101602564202071
:1009100084F83D00256384F83E50002070BD00E05F
:1009200006E001EB4102B0FBF2F2CCE70120D7E791
:1009300001EB4101B0FBF1F0D0E7000040420F00B5
:10094000A08601002DE9F84F1F4690468A460446CE
:10095000DDF82890FFF76CFF064694F83D0020284C
:100960007ED11923012243492046009600F0EFFF73
:1009700000287DD194F83C00012879D0012084F82A
:100980003C0020680168C90703D1016841F00101FA
:1009900001602068016821F400610160212084F871
:1009A0003D00102084F83E0000252564C4F8248012
:1009B00067853148E062608D208533464A4651465E
:1009C000204600F053FF28B1206C84F83C500428E6
:1009D0004CD00DE0206841698069009030E03246DB
:1009E0004946204601F028F828B1206C042838D068
:1009F0000320BDE8F88F606A411C616221680078BD
:100A00000861608D401E6085208D401E80B220856B
:100A100021684A69D24352070BD450B1606A421C24
:100A2000626200780861608D401E6085208D401EE6
:100A3000208532464946204600F062FF0028D4D186
:100A4000208D0028CBD154F83D0B016841F4007192
:100A50000160202004F81E09E57765770020C8E7CB
:100A600006E02068016841F4007101600120C0E7E0
:100A70000220BEE7020010000000FFFF00B5006882
:100A80000C4985B0884212D1C020009012200190FC
:100A90000320039069460848FFF7CCFD0748C16969
:100AA00041F40011C161C06900F40010049005B068
:100AB00000BD000000540040000C01400010024046
:100AC00002480168491C0160704700005400002082
:100AD000074810B5016841F010010160032000F0E3
:100AE00093F8002000F006F800F018F8002010BD80
:100AF0000020024010B5044607484FF47A710068A0
:100B0000B0FBF1F000F027FB00222146501E00F060
:100B10005BF8002010BD000058000020224808B5F6
:100B2000816941F001018161816901F00101009158
:100B3000C16941F08051C161C06900F080500090EE
:100B4000032000F061F8002211466FF00B0000F066
:100B50003BF8002211466FF00A0000F035F8002241
:100B600011466FF0090000F02FF800221146501FC7
:100B700000F02AF800221146101F00F025F800228C
:100B80001146901E00F020F800221146501E00F081
:100B90001BF80648416821F0E0614160416841F07E
:100BA0000071416008BD00000010024000000140DB
:100BB00000F01F02012191404009800000F1E02077
:100BC000C0F8001170470000F0B40E4B1B680C46D3
:100BD000C3F30223C3F10705042D00D90425191D11
:100BE000072901D2002300E0DB1E012606FA05F1E9
:100BF000491E214099409E40761E16403143F0BC6C
:100C000001F05CB80CED00E0064900F0070208684E
:100C10004FF6FF03184040EA0220034A10430860E1
:100C2000704700000CED00E00000FA052DE9F047E8
:100C3000DFF83C8105460E46D8F8000000F00700BA
:100C4000B0420CD2D8F8001021F007013143C8F8A7
:100C50000010D8F8000000F00700B04263D12878F7
:100C6000444C800705D56068A96820F0F00008436F
:100C700060602878C00745D06868012816D02168D0
:100C8000022816D0890700294DDA616821F0030196
:100C900001436160FFF7CCFD6968074641F2883087
:100CA00001290FD00229814619D027E02168890344
:100CB000E9E78901E7E700BFFFF7BAFDC11B494536
:100CC00001D918E081466068C0F381000128F3D1A2
:100CD00018E000BFFFF7ACFDC11B49450BD86068A9
:100CE000C0F381000228F5D10CE000BFFFF7A0FDA2
:100CF000C11B494502D90320BDE8F087606810F0A8
:100D00000C0FF3D1D8F80010404601F00701B142B2
:100D10000BD9016821F0070131430160006800F040
:100D20000700B04201D00120E6E72878400705D54A
:100D30006068E96820F4E060084360602878000794
:100D400006D56068296920F4605040EAC1006060FF
:100D500000F03CF86168084AC1F30311515CC840D7
:100D6000064908600020FFF7C5FE0020C4E7000028
:100D70000020024000100240F43800085800002013
:100D800001480068704700005800002004480549E9
:100D900000684968044AC1F30221515CC8407047A9
:100DA000580000200010024004390008044805499A
:100DB00000684968044AC1F3C221515CC8407047C9
:100DC00058000020001002400439000810B512A39A
:100DD00085B00FCB8DE80F0013A0144B0068049072
:100DE0005A68134802F00C0104290FD008290DD1CC
:100DF000C2F38344D2031DF8041009D55A6804AB2A
:100E0000C2F340429A5CB0FBF2F0484305B010BD1B
:100E100008484843FAE700000203040506070809EA
:100E20000A0B0C0D0E0F1010010200000010024002
:100E300000127A0000093D002DE9F84F04460078C1
:100E4000B94DC00748D06868C0F38100012807D0B9
:100E50006868C0F38100022809D16868C00306D51C
:100E60002868800338D5606800286FD034E0606857
:100E7000B0F5803F0BD010B1B0F5A02F11D028688D
:100E800020F480302860286820F4802002E0286860
:100E900040F480302860606888B1FFF7C9FC0646DE
:100EA00009E0286840F480202860F0E7FFF7C0FCE4
:100EB000801B642875D828688003F7D50CE0FFF7FD
:100EC000B7FC064605E000BFFFF7B2FC801B6428B4
:100ED000F0D828688003F7D42078944E80074FF02C
:100EE00001094FF000083BD5686810F00C0F07D0DF
:100EF0006868C0F38100022809D16868C00306D47D
:100F00002868800714D5206901281FD110E02069C6
:100F1000B0B1C6F80090FFF78BFC074605E000BFB4
:100F2000FFF786FCC01B0228C4D828688007F7D5C5
:100F30002868616920F0F80040EAC10028600FE0ED
:100F4000C6F80080FFF774FC074606E0E9E000BF42
:100F5000FFF76EFCC01B022823D828688007F7D44F
:100F6000207800072CD57248A169D9B1C0F800904B
:100F7000FFF75EFC074604E0FFF75AFCC01B02289F
:100F80000FD8686A8007F7D56A484FF4FA510068AD
:100F9000B0FBF1F0009000BF0098411E0091FAD222
:100FA0000EE080E0C0F80080FFF742FC074604E056
:100FB000FFF73EFCC01B022875D8686A8007F7D48B
:100FC0002078400760D5E8690027C00008D4E869A8
:100FD00040F08050E861E869012700F080500090FF
:100FE00055480168C90513D40168834641F48071EE
:100FF0000160FFF71DFC824606E000BFFFF718FC0A
:10100000A0EB0A0064284ED8DBF80000C005F5D537
:10101000E06801280AD008B1052813D0286A20F01A
:1010200001002862286A20F0040002E0286A40F0EB
:1010300001002862E06841F2883B98B1FFF7F8FBB5
:1010400082460BE0286A40F004002862EEE700BF09
:10105000FFF7EEFBA0EB0A0159455AD8286A800732
:10106000F6D50CE0FFF7E4FB824605E0FFF7E0FB76
:10107000A0EB0A0159454CD8286A8007F6D41FB165
:10108000E86920F08050E861E06988B36968C1F3DD
:101090008101022945D00228C6F8608004D0FFF7FC
:1010A000C7FB044638E034E0FFF7C2FB074604E024
:1010B000FFF7BEFBC01B02282BD828688001F7D49D
:1010C000206AB0F5803F05D16868A16820F400303F
:1010D00008436860D4E908010843696821F4741181
:1010E00008436860C6F86090FFF7A2FB044606E07C
:1010F00015E000BFFFF79CFB001B022809D82868F9
:101100008001F7D50BE000BFFFF792FB001B022820
:1011100002D90320BDE8F88F28688001F4D40020AC
:10112000F8E70120F6E7000000100240000042420C
:101130008004424258000020007000404FF0E0213F
:101140000428086903D020F004000861704740F0CB
:101150000400FAE7704710B5401EB0F1807F01D35C
:10116000012010BD4FF0E02460610F21601700F0F6
:10117000A5FD0020A06107202061002010BD10B552
:10118000FFF7E8FF10BD30B590F83C20012A20D0D1
:10119000012280F83C20022380F83D3003685C681F
:1011A00024F070045C6003685C680D682C435C602C
:1011B00003689C6824F080049C6003689C6849680C
:1011C0000C439C6080F83D20002180F83C100846CC
:1011D00030BD022030BD10B5040003D094F83D00AE
:1011E00010B107E0012010BD002084F83C0020462B
:1011F00000F00CF8022084F83D00211D206800F06A
:10120000CDFE012084F83D00002010BD08B5006827
:10121000B0F1804F08D10548C16941F00101C161B9
:10122000C06900F00100009008BD000000100240FD
:1012300070B5044690F83C00012817D0012584F8C9
:101240003C50022084F83D002068826822F077023A
:1012500022F47F4282600868502837D00DDC2028B5
:1012600059D005DC88B3102841D151E0022070BD6F
:10127000302853D040283AD13FE060282ED0702843
:101280000BD0B0F5805F03D0B0F5005F2FD110E038
:101290002068816821F0070115E0CB68D1E90121C0
:1012A000206800F0C1FE2168886840F077008860FF
:1012B0001DE0CB68D1E90121206800F0B5FE20686F
:1012C000816841F48041816011E01EE0CA6849688C
:1012D000206800F07DFF5021206806E0CA68496858
:1012E000206800F086FF6021206800F0A7FE84F8E7
:1012F0003D50002084F83C0070BDCA6849682068F1
:1013000000F066FF40212068EFE700212068ECE74D
:1013100010212068E9E720212068E6E730212068D5
:10132000E3E700001FB50068B0F1804F12D14FF421
:101330000040009002200190039069460648FFF7A4
:1013400079F90648416821F440714160416841F4EF
:10135000807141601FBD0000000801400000014095
:1013600070B5044690F83C000D4601280DD00126CA
:1013700084F83C60022084F83D0042B1042A18D071
:10138000082A2AD00C2A4DD139E0022070BD2068ED
:1013900000F05CFE2068816941F0080181612068ED
:1013A000816921F004018161206881692A69114302
:1013B00011E0206800F07AFE2068816941F4006144
:1013C00081612068816921F480618161206881697F
:1013D0002A6941EA0221816124E0206800F09CFE34
:1013E0002068C16941F00801C1612068C16921F02C
:1013F0000401C1612068C1692A69114311E02068B4
:1014000000F0BEFE2068C16941F40061C16120683E
:10141000C16921F48061C1612068C1692A6941EA1A
:101420000221C16184F83D60002084F83C0070BD59
:1014300010B5040003D094F83D0010B107E001207E
:1014400010BD002084F83C00204600F00CF802207B
:1014500084F83D00211D206800F0A0FD012084F8E3
:101460003D00002010BD70477047000070B5026855
:1014700004461068D168536910F00F0F50D003F084
:10148000010501F4907635435DD0C20705D0CA0549
:1014900003D5E26B42F00102E263420705D5DA07A9
:1014A00003D0E26B42F00202E263820705D5DA075D
:1014B00003D0E26B42F00402E263020705D5DA07CB
:1014C00003D0E26B42F00802E263E26B002A33D001
:1014D000800604D5880602D5204600F0B9FE2068B3
:1014E0004069E16BC0F38010090700D428B320469F
:1014F00000F0A0FE2068416949061AD5416921F033
:1015000040014161606BA0B11B494163606BFEF714
:1015100047FF002810D0606B416BBDE87040084762
:10152000830610D58B060ED52046BDE8704000F02E
:101530008FBE2046FFF798FF70BD2046FFF794FF4F
:101540000020E06370BD030606D50B0604D52046D7
:10155000BDE8704000F080BF4006F3D54806F1D5E5
:10156000D168204621F04001D160202184F8391053
:1015700000F065F970BD00002522000870B5040078
:1015800004D094F83900002510B106E0012070BDA8
:1015900084F83850204600F023F8242084F83900DD
:1015A0002068C16821F40051C160204600F09CFE13
:1015B0002068016921F4904101612068416921F0AE
:1015C0002A0141612068C16841F40051C160E563AE
:1015D000202084F8390084F83A00002070BD000013
:1015E00010B50068154986B0884225D11448C169F4
:1015F00041F40021C161C069124C00F40020049044
:101600004FF480600090022001900320039069460F
:101610002046FFF70FF80021E014CDE90001029108
:1016200069462046FFF706F8002211463420FFF7EE
:10163000CBFA3420FFF7BCFA06B010BD004C0040D6
:10164000001002400010014090F83A30202B22D1C7
:10165000F9B1F2B190F83830012B1CD0816282854B
:10166000C2850021C163222280F83A2080F8381018
:101670000168CA6842F48072CA6001684A6942F02F
:1016800001024A610068C16841F02001C160002088
:1016900070470120704702207047000010B52548B0
:1016A000254A04460178206B1154401C20633B29D5
:1016B00038D11046FEF77CFD1F4982B26423A1F1A8
:1016C000A00000F05FF800201B49206301F16400D6
:1016D000FEF783FD0D22184918A0FEF787FD90B193
:1016E0001022154919A0FEF781FD78B10D2212498B
:1016F0001BA0FEF77BFD60B113220F491CA0FEF773
:1017000075FD48B10AE001F075FC07E001F05CFAF4
:1017100004E001F02FF901E001F0FCFA6421064831
:10172000FEF729FD04480122BDE810400149A03818
:10173000FFF78ABF0000002090050020636F6E66EF
:1017400069673A756E6C6F636B000000636F6E665D
:1017500069673A72657365747061737300000000A5
:10176000636F6E6669673A6C6F636B656400000057
:10177000636F6E6669673A74696D656368616E6709
:10178000696E67002DE9F843044690F839001F465A
:1017900016460D46202850D1A5B19EB194F83800C8
:1017A00001284AD0012084F838004FF00008C4F81E
:1017B0003C80212084F83900FFF73AF8A68481465E
:1017C000E68426E00120BDE8F883E08C401EE0843A
:1017D000A0684B46B0F5805F4FF000024FF08001EB
:1017E0002046009703D000F068FEE8B90DE000F055
:1017F00064FEC8B928882168C0F3080048602069E1
:1018000008B16D1C05E0AD1C03E0216815F8010B63
:101810004860E08C0028D8D14B4600224021204669
:10182000009700F04AFE08B10320CCE7202084F89E
:10183000390084F838800020C5E70220C3E77047EC
:10184000FEE701684A69D24352050CD46FF4806206
:101850004A6104210164002140F8301F20224273B4
:10186000017301207047002070470000F8B504465E
:10187000C06A1E460D461746042807D0012805D029
:1018800010F5803F02D0206B122804D12068016837
:1018900041F480710160134600224FF0011120468F
:1018A000009600F054F8A0B92069B0F5804F12D02E
:1018B0000620216800EAD51040F0F00008613346A8
:1018C0003A460E49204600F073F838B1206C0428DF
:1018D00011D00320F8BD05F0FE0000E0E8B2216859
:1018E0000861064933463A46891F204600F060F8F1
:1018F0000028EBD1F8BD0120F8BD00000800010070
:1019000070B516460D4604461AE02046FFF799FFCB
:1019100008B1012070BD681C12D025B1FEF788FF08
:10192000801BA8420CD954F8400F40F0200044F826
:10193000100900202060202161732073032070BDF6
:1019400020684069C0434007DFD4002070BD2DE906
:10195000F0471E4690460D460446C1F30747DDF8A2
:10196000209012E0701C10D02EB1FEF761FFA0EBAA
:101970000900B04209D9002044F8300F20216173DA
:10198000A07320730320BDE8F0872068012F0AD0E0
:10199000806925EA00000004000C06D000214145C2
:1019A000E0D00020EFE74069F3E70121F7E700000E
:1019B0002DE9F0479A4691460D46044600264FF021
:1019C0002008C1F307472AE020684069C04340056A
:1019D00012D42068016841F40071016021686FF43D
:1019E0008060486104202064266384F83D8084F888
:1019F0003C600120BDE8F087B9F1FF3F0FD0B9F19D
:101A0000000F05D0FEF714FFA0EB0A01494506D9E7
:101A100044F8306F84F80D8026730320EAE72068CD
:101A2000012F07D0D0F8180025EA00000004000CB0
:101A3000E0D0C9E74069F7E770B516460D460446A1
:101A40001AE02046FFF7FDFE08B1012070BD681CBA
:101A500012D025B1FEF7ECFE801BA8420CD954F839
:101A6000400F40F0200044F81009002020602021A1
:101A700061732073032070BD20684069C043000675
:101A8000DFD4002070BD00001CB502238DF80400D7
:101A90004FF47A708DF80510009001AA7821024861
:101AA000FEF750FF1CBD00005C04002000F02CBFBE
:101AB000174810B5816986B041F0040181618169E0
:101AC00001F004010491816941F00801816180699C
:101AD000104C00F0080004900022F0212046FEF790
:101AE000A2FEF02000901120019002200390694690
:101AF0002046FEF79FFD0F2000900020019001205E
:101B0000029069462046FEF795FD06B010BD000024
:101B100000100240000801402DE9F04F354885B023
:101B2000816941F004018161816901F0040104913E
:101B3000816941F008018161816901F00801049126
:101B4000816941F0100181618069DFF8AC9000F09B
:101B50001000049000220F214846FEF764FEDFF8D3
:101B60009CA04FF48057002239465046FEF75BFE9A
:101B7000DFF88CB04FF4E078002241465846FEF77B
:101B800052FE0F20012500240226CDE90005CDE9F3
:101B9000024669464846FEF74DFDF0200090194880
:101BA000CDE9010469464846FEF744FD00970396D7
:101BB000CDE9015469465046FEF73CFDCDF8008062
:101BC0000396CDE9015469465846FEF733FD0022DD
:101BD00011460A20FEF7F8FF0A20FEF7E9FF00226F
:101BE00011461720FEF7F0FF1720FEF7E1FF05B0C2
:101BF000BDE8F08F0010024000080140000C0140D9
:101C000000100140000011100B4810B50949016097
:101C10000A49416000214FF480428160C0E903120B
:101C200041618161C1610162FEF708FE002800D0B8
:101C3000FEE710BD005400405C040020A0860100B7
:101C400010B51C488EB04FF0804101604FF4C85170
:101C50000024C0E90114C46004618461FFF7BBFA89
:101C600000B1FEE74FF48050079007A91148FFF735
:101C7000DFFA00B1FEE70F48FFF7DAFB00B1FEE73D
:101C80000B940BA90B480C94FFF77DFA00B1FEE70B
:101C90006020CDE9000402940022694605480494BE
:101CA000FFF75EFB00B1FEE70248FFF73BFB0EB01B
:101CB00010BD0000B0040020FEE770470907090EC0
:101CC000002806DA00F00F0000F1E02080F8141D73
:101CD000704700F1E02080F80014704710B500F064
:101CE00005F8BDE8104000F0EDBD000010B5002182
:101CF000074C0A46002004EBC1131A54401CC0B222
:101D00008028FAD3491CC9B20829F3D310BD0000BA
:101D10005C0000202DE9FF4F92468146002624E01A
:101D200001984C4600EBC6070AEB040819E006FBD5
:101D30000A400025A0EB090B802C0CD2402F0AD2C0
:101D40000D9911F80B00E84000F001027819C1B2BA
:101D5000204600F069F86D1CEDB2082DECD3641C30
:101D6000E4B2A045E3D8761CF6B203988642D7D3F6
:101D7000BDE8FF8F10B56420FEF7AAFBAE2000F08F
:101D8000CFFB202000F0CCFB102000F0C9FBB020DE
:101D900000F0C6FBC82000F0C3FB002000F0C0FB31
:101DA000102000F0BDFB402000F0BAFB812000F0C5
:101DB000B7FBFF2000F0B4FBA12000F0B1FBA62090
:101DC00000F0AEFBA82000F0ABFB3F2000F0A8FB2A
:101DD000A42000F0A5FBD32000F0A2FB002000F01F
:101DE0009FFBD52000F09CFBF02000F099FBD92050
:101DF00000F096FB222000F093FBDA2000F090FB2D
:101E0000122000F08DFBDB2000F08AFB202000F088
:101E100087FB8D2000F084FB142000F081FBBDE8DF
:101E20001040AF2000F07CBB30B5402910D880288E
:101E30000ED801F007040123064DA340C90805EBA5
:101E4000C111002A0A5C01D01A4300E09A430A54E7
:101E500030BD00005C0000202DE9F841002416464A
:101E600088460546802833D8B8F13F0F30D8012B7B
:101E70002AD0022B2CD1174F305D002828D02028E3
:101E80000AD307EB0010A0F500700090022308228F
:101E900041462846FFF73EFF641C0835E4B2EDB228
:101EA000EAE720280BD300EB400007EB4000C038E6
:101EB00000900123062241462846FFF72BFF641CB1
:101EC000AD1DE4B2EDB200E0034F305D0028E8D173
:101ED000BDE8F88104330008DC3000087047704723
:101EE00010B5FEF7EDFDBDE81040FFF748B930B57D
:101EF0008FB0022501200490009510200590002449
:101F00004FF46010CDE9084007956846FEF794FF4E
:101F100000B1FEE70F20CDE90A054FF48060CDE95E
:101F20000C4002210AA80E94FEF780FE00B1FEE7E5
:101F3000FEF726FF4FF47A71B0FBF1F0FFF70BF9D3
:101F40000420FFF7FBF800221146501EFEF73CFE6E
:101F50000FB030BD0D48016841F0010101604168DA
:101F60000B4A1140416001680A4A11400160016852
:101F700021F480210160416821F4FE0141604FF4A9
:101F80001F0181600449C0030860704700100240CF
:101F90000000FFF8FFFFF6FE08ED00E0F0B5026874
:101FA0001C4B1D4D1D4E1E4F1E4C4FF0804C984239
:101FB00009D0A04207D0604505D0A84203D0B04266
:101FC00001D0B84204D122F0700E4A6842EA0E02F3
:101FD000984209D0A04207D0604505D0A84203D05E
:101FE000B04201D0B84203D122F44075CA682A43F6
:101FF00022F080054A692A4302608A68C2620A6840
:102000008262984201D0A04201D109690163012195
:102010004161F0BD002C0140000400400008004078
:10202000000C00400034014010B5846842EA0322ED
:1020300024F47F440A432243826010BD826822F068
:1020400070020A4342F0070181607047F0B5026AEE
:1020500022F001020262036A42688469124E24F08F
:1020600073050C682C4323F002058B682B430D4D40
:10207000A84201D0B04205D123F00807CB683B430A
:1020800023F00403A84201D0B04205D14D6922F4E7
:10209000407215438A692A434260846149684163FA
:1020A0000362F0BD002C014000340140F0B5026A2B
:1020B00022F010020262026A436884690D6824F407
:1020C000E64444EA05248D6822F0200242EA051223
:1020D0000F4D104EA84201D0B04206D1CF6822F079
:1020E000800242EA071222F04002A84201D0B04228
:1020F00007D14D6923F4406343EA85038D6943EAC0
:10210000850343608461496881630262F0BD000019
:10211000002C014000340140F0B5026A22F48072C4
:102120000262026A4368C46922F4007224F07305F3
:102130000C68124E2C438D6842EA05220E4DA842CF
:1021400001D0B04206D1CF6822F4006242EA0722F1
:1021500022F48062A84201D0B04207D14D6923F435
:10216000405343EA05138D6943EA05134360C46194
:102170004968C1630262F0BD002C01400034014097
:1021800030B5026A22F480520262046A4268C3696E
:102190000D6823F4E64343EA05238D6824F40054D4
:1021A00044EA0534084DA84202D0084DA84204D1A3
:1021B0004D6922F4804242EA85124260C361496857
:1021C0000164046230BD0000002C01400034014075
:1021D00010B5036A046A24F001040462846924F0DF
:1021E000F00444EA021423F00A020A438461026202
:1021F00010BD10B5036A23F0100303628369046AFB
:1022000023F4704343EA023224F0A00343EA0111AD
:102210008261016210BD00000148FFF727B900008C
:10222000F004002010B5406A0021C185C184FFF789
:102230001BF910BD0168CA6822F49072CA60016877
:102240004A6922F001024A61202180F83A10704761
:1022500010B590F83A10222901D0022010BD8168F3
:10226000B1F5805F11D00169002901681FD049686C
:1022700001F07F03816A4A1C82620B70C18D491E86
:102280000904090CC18518D02BE00269816A002A73
:102290000268526805D0D2B20A80816A491C816204
:1022A000ECE7C2F308020A80816A891CF7E74A68F2
:1022B000816A4B1C83620A70E0E70168CA6822F0F9
:1022C0002002CA600168CA6822F48072CA6001688C
:1022D0004A6922F001024A61202180F83A10FFF792
:1022E000DDF9002010BD00002DE9F0410446006832
:1022F0000169E26821F44051114301612169A0683C
:102300000843616908432168CA6841F20C639A4333
:102310000243CA6020684169A26921F440711143F7
:1023200041614C4920686425322688423CD1FEF741
:102330003DFD00EBC00101EB001061688900B0FBBE
:10234000F1F7FEF733FD00EBC00101EB001061680F
:10235000B0468900B0FBF1F0B0FBF5F06FF018016A
:10236000484307EB800106EB0110B0FBF5F000F0ED
:10237000F006FEF71BFD00EBC00101EB00106168E9
:102380008900B0FBF1F0B0FBF5F006EB0016FEF7AC
:102390000DFD00EBC00101EB001061688900B0FB8E
:1023A000F1F7FEF703FD3BE0FEF7F0FC00EBC001A8
:1023B00001EB001061688900B0FBF1F7FEF7E6FC65
:1023C00000EBC00101EB00106168B0468900B0FB72
:1023D000F1F0B0FBF5F06FF01801484307EB800116
:1023E00006EB0110B0FBF5F000F0F006FEF7CEFCB6
:1023F00000EBC00101EB001061688900B0FBF1F057
:10240000B0FBF5F006EB0016FEF7C0FC00EBC001D8
:1024100001EB001061688900B0FBF1F7FEF7B6FC34
:1024200000EBC00101EB001061688900B0FBF1F026
:10243000B0FBF5F06FF01801484307EB800108EBA3
:102440000110B0FBF5F0216800F00F003044886007
:10245000BDE8F0810038014090F83910212901D001
:10246000022070478168B1F5805F016A0BD04A1C79
:102470000262026809785160C18C491E0904090C86
:10248000C1840ED017E009880268C1F308015160C9
:1024900001690029016A02D0491C0162ECE7891C2C
:1024A000FBE70168CA6822F08002CA600068C16860
:1024B00041F04001C160002070472DE9F04198468D
:1024C00017460E460446069D1DE0681C1BD02DB124
:1024D000FEF7AEF9A0EB0800A84214D92068C16845
:1024E00021F4D071C1602068416921F0010141618E
:1024F000202084F8390084F83A00002084F838005D
:102500000320BDE8F0812068006836EA000004D0AE
:102510000020B842D9D00020F3E70120F9E7FEE718
:1025200001460020FFF7B0BA01464020FFF7ACBAE1
:102530000FB4084B10B504A902AA039800F01CF8C8
:10254000044602A9002000F0B8F9204610BC5DF84E
:1025500014FB0000BB28000802E008C8121F08C1D5
:10256000002AFAD170477047002001E001C1121F14
:10257000002AFBD1704700002DE9FF4F8BB0884641
:102580000546002606E025280BD0DDE90D12904710
:102590006D1C761C28780028F5D10FB03046BDE8B8
:1025A000F08F0024A146A2460122AE4900E0044378
:1025B00015F8013F203B02FA03F00842F7D12878D2
:1025C0002A2810D06FF02F022878A0F130010929B5
:1025D00015D809EB890102EB410144F0020400EB3C
:1025E00001096D1CF0E758F8041B5FEA010903D5E7
:1025F00044F40054C9F1000944F002046D1C287829
:102600002E2817D115F8010F44F004042A280ED003
:102610006FF02F022878A0F1300109290AD80AEBBF
:102620008A0102EB410100EB010A6D1CF2E758F848
:1026300004AB6D1C28786C280FD006DC4C2817D012
:1026400068280DD06A2814D104E0742810D07A28A4
:102650000FD10DE044F400140AE044F4801401E0CA
:1026600044F440146978814202D104F580146D1C51
:102670006D1C2878692865D006DC00288DD0632879
:1026800027D0642806D15DE06E2808D073282AD0B0
:10269000752877D0DDE90D129047761CE0E0C4F391
:1026A0000250022809D003280DD0D8F800100428C1
:1026B0000DD00E6008F10408D2E0D8F80010F2172F
:1026C000C1E90062F6E7D8F800100E80F2E70E705C
:1026D000F0E718F8041B8DF8001000208DF80100B9
:1026E000EB46012003E058F804BB4FF0FF306107D0
:1026F0004FF0000701D40AE07F1C57450DDA8742EE
:10270000FADB1BF807100029F6D106E07F1C874290
:10271000FCDB1BF807100029F8D1DDE90D23A9EB3C
:1027200007008146214600F0B1F83044C61904E0A4
:10273000DDE90D121BF8010B90477F1EF8D22146F0
:10274000484688E058F8040BC4F302514FF00A0BD6
:10275000032900D100B2042900D140B2002802DAD6
:1027600040422D2102E0210505D52B218DF82410B2
:10277000012104E006E0E10710D02021F6E708AFD0
:10278000089113E058F8040BC4F302514FF00A0B00
:10279000032900D180B2042900D1C0B20021EEE7A4
:1027A0005946FDF732FD303107F8011D0028F7D1F9
:1027B000ADEB070000F1200B600702D524F4803454
:1027C00001E04FF0010ADA4502DDAAEB0B0000E060
:1027D0000020824600EB0B0108980144A9EB0100A0
:1027E0000A90E00306D4DDE90D2321460A9800F0A3
:1027F0004DF806444FF0000908E009A911F8090056
:10280000DDE90D12904709F10109761C0899894507
:10281000F3DBE0030CD5DDE90D2321460A9800F037
:1028200035F8064404E0DDE90D1230209047761CAF
:10283000BAF10001AAF1010AF5DC05E0DDE90D12AB
:1028400017F8010B9047761CBBF10001ABF1010BAF
:10285000F4DC0A982146DDE90D2300F005F8064472
:102860006D1C97E6092801002DE9F041044600257A
:102870001E461746880404D405E039462020B04798
:102880006D1C641EF9D52846BDE8F0812DE9F041A4
:10289000044600251E469046C80301D5302700E0B7
:1028A0002027880404D505E041463846B0476D1C12
:1028B000641EF9D52846BDE8F0810A68531C0B60F8
:1028C000107070472DE9F0410E4F002404F1B00064
:1028D000C0B2FFF725FE0020FFF722FE1020FFF711
:1028E0001FFE002507EBC416705DFFF71DFE6D1C73
:1028F000EDB2802DF8D3641CE4B2082CE6D3BDE819
:10290000F08100005C000020174810B5816986B096
:1029100041F004018161816901F004010491816940
:1029200041F0080181618069104C00F008000490BA
:1029300000220F212046FDF776FF0F200090112086
:1029400001900220039069462046FDF773FEF020B7
:102950000090074801900120029069462046FDF74B
:1029600069FE06B010BD00000010024000080140E2
:102970000000211010B513A11448FDF707FC144CFA
:10298000124BA0630020843B03E01A54491C401CF6
:10299000A163A16B0A783B2AF7D10C4809A18438BE
:1029A000FDF70DFC00280BD1012211030948FDF7AA
:1029B0003AFF002240210848FDF735FF0320606000
:1029C00010BD00006C6F636B65640000F4050020AF
:1029D00000000020000C01400010014010B5FFF77E
:1029E0007DF9022306A210210020FFF735FA01220B
:1029F00040210548FDF717FFFFF764FF10BD0000F9
:102A00004C4F434B4544000000100140FEF760F876
:102A1000FFF76DFAFFF780F8FFF7F6F8FFF710F908
:102A200028482749002401604FF4E131C0E901142E
:102A30000C21C460C0E904418461C461FEF79EFDBD
:102A400000B1FEE7FFF732F8FFF794F90122110316
:102A50001D48FDF7E8FE1D4D012240212846FDF7E7
:102A6000E2FE012280212846FDF7DDFE012211024F
:102A70002846FDF7D8FE012215491248FEF7E4FD6D
:102A8000134D4FF47A76686878B1012810D0022887
:102A900013D00328F7D1FFF7A1FF00BF00F026F9FC
:102AA0003046FDF715FD6C60EDE700F013F801E02E
:102AB00000F06EF800F01AF9E5E700F043FAEDE7F0
:102AC000004C0040F0040020000C014000100140C8
:102AD0000000002010B5174C8AB017A120690090A3
:102AE000D4E9022301A8FFF723FDE0690090D4E9AF
:102AF000052317A105A8FFF71BFD0021022301AA4A
:102B00000846FFF7A9F9022305AA10210020FFF7C4
:102B1000A3F9022314A220210020FFF79DF902232C
:102B200016A240210020FFF797F9FFF7CBFE0AB06D
:102B300010BD00000000002020202020253032643D
:102B40002D253032642D25303264202020000000F5
:102B500020202020253032643A253032643A253056
:102B6000326420202000000020534D4152544C4F2D
:102B7000434B4D41524B4920000000005749464904
:102B800020202020202020202020202000000000C5
:102B900010B5022306A210210020FFF75DF90223E1
:102BA000084A20210020FFF757F9FFF78BFE10BDE0
:102BB0002020456E746572207061737377642020E5
:102BC00000000000400500202DE9F04100252DA166
:102BD0002F48FDF7DBFA2F4C08302D4AA063A43AAA
:102BE00003E05055491C6D1CA163A16B08782C288B
:102BF00001D03B28F5D1264926480622A439423087
:102C0000FDF7F4FA244F022660B1214823A1C4380D
:102C1000FDF7E3FA38466660BDE8F0410022402146
:102C2000FDF701BE002521A11948FDF7AFFA0A30D2
:102C3000174AA063643203E05055491C6D1CA16320
:102C4000A16B08782C2801D03B28F5D110491148F8
:102C500064314230FDF7C1FA0D4817A1C438FDF7C1
:102C6000BCFA0022802138466660FDF7DCFD084989
:102C70001839002041F87C0F48608860C860BDE8C2
:102C8000F08100006B6579706173733D0000000096
:102C9000F405002000000020001001402077726F32
:102CA0006E67206F6C64706173732000726573656A
:102CB00074706173733D00002072657365742073D6
:102CC000756363657373200010B5024600200146EA
:102CD0006FF02F0406E000BF00EB800004EB400023
:102CE0001844491C535C002BF6D110BD10B54FF4AD
:102CF0007A70FDF7EDFB0648C169491CC1613C29AA
:102D000004D10021C1618169491C816110BD0000AD
:102D1000000000202DE9F041002564A16548FDF781
:102D200035FA654C001D634AA063743A03E05055C0
:102D3000491C6D1CA163A16B08782C2801D03B288D
:102D4000F5D15C4803225DA17438FDF74FFA5A4E65
:102D5000002702253C36F8B15648032258A17438A2
:102D6000FDF744FA002839D05248042255A174389E
:102D7000FDF73CFA002853D04E48032253A1743883
:102D8000FDF734FA00287CD1804648A14948FDF778
:102D9000FDF90830A0636BE04FF0000843A14548FF
:102DA000FDF7F4F90830A06306E000BF06F808005C
:102DB000491C08F10108A163A16B08782C2801D0F7
:102DC0003B28F3D13C483C30FFF77EFFE0623C28D3
:102DD00001DB3FA15FE041A1E0615CE04FF0000852
:102DE00032A13448FDF7D2F90830A06306E000BFF5
:102DF00006F80800491C08F10108A163A16B0878D6
:102E00002C2801D03B28F3D12B483C30FFF75CFF46
:102E1000A0623C2801DB35A13DE037A1A0613AE08A
:102E20004FF0000821A12348FDF7B0F90930A06355
:102E300006E000BF06F80800491C08F10108A1637C
:102E4000A16B08782C2801D03B28F3D11A483C30DC
:102E5000FFF73AFF6062182801DB2BA11BE02EA1CF
:102E6000606118E006F80800491C08F10108A16338
:102E7000A16B08782C2801D03B28F3D10E483C30B8
:102E800000E010E0FFF720FF20621F2801DD26A1EF
:102E900001E028A120610748C438FDF79EF9E763E7
:102EA0006560A4F84070BDE8F08100007365743A75
:102EB00000000000F405002000000020736563009E
:102EC0006D696E00686F75720000000064617900C2
:102ED000736574736563206661696C0073657473F0
:102EE0006563207375636365737300007365746D48
:102EF000696E206661696C007365746D696E20731C
:102F00007563636573730000736574686F75722011
:102F10006661696C00000000736574686F757220EB
:102F20007375636365737300736574646179206698
:102F300061696C007365746461792073756363659E
:102F40007373000010B5FEF7C9FE0223174A102163
:102F50000020FEF781FFFFF7B5FC0E22134914A0F5
:102F6000FDF744F9164CA8B10B22104915A0FDF746
:102F70003DF960B10F220D4915A0FDF737F970B189
:102F80000F220A4916A0FDF731F900280CD10122C1
:102F9000402106E0012211031548FDF744FC0122FF
:102FA00080212046FDF73FFC10BD000030050020C9
:102FB000756E6C6F636B207375636365737300006C
:102FC00000100140756E6C6F636B206661696C0068
:102FD0002072657365742073756363657373200075
:102FE0002077726F6E67206F6C647061737320005E
:102FF000000C01402DE9F04129A12C48FDF7C6F84D
:103000002B4C00212B4E0830A0637167B167F1672C
:103010000D4606F17403C6F8801003E05854521CA4
:10302000491CA263A26B10782C2801D03B28F5D153
:103030002049743101F11000FDF7CFF81D491C48FB
:10304000062274314230FDF7D1F81B4BDFF86C805B
:103050004FF480510227B0B101221846FDF7E3FB7F
:10306000002240214046FDF7DEFB15A167601148B4
:103070005430FDF7B2F87567B567F567C6F880504C
:103080002563BDE8F08100221846FDF7CCFB002245
:1030900080214046FDF7C7FB0CA16760E7E7000011
:1030A0006B6579706173733D00000000F4050020CA
:1030B00000000020DC040020000C01400010014052
:1030C000756E6C6F636B206661696C00756E6C6FFA
:1030D000636B207375636365737300000000000009
:1030E00000000000002F000000000700070000148F
:1030F0007F147F1400242A7F2A120062640813239D
:1031000000364955225000000503000000001C2233
:103110004100000041221C000014083E0814000871
:10312000083E0808000000A0600000080808080821
:10313000000060600000002010080402003E5149B9
:10314000453E0000427F4000004261514946002157
:1031500041454B31001814127F1000274545453971
:10316000003C4A49493000017109050300364949CC
:10317000493600064949291E000036360000000085
:1031800056360000000814224100001414141414D0
:103190000000412214080002015109060032495979
:1031A000513E007C1211127C007F49494936003E95
:1031B00041414122007F4141221C007F4949494150
:1031C000007F09090901003E4149497A007F08084A
:1031D000087F0000417F4100002040413F01007F07
:1031E00008142241007F40404040007F020C027FD3
:1031F000007F0408107F003E4141413E007F0909E5
:103200000906003E4151215E007F0919294600460A
:10321000494949310001017F0101003F4040403FE1
:10322000001F2040201F003F4038403F006314082B
:103230001463000708700807006151494543000006
:103240007F41410000552A552A55000041417F0029
:10325000000402010204004040404040000001021E
:103260000400002054545478007F48444438003807
:103270004444442000384444487F0038545454188F
:1032800000087E0901020018A4A4A47C007F0804A1
:1032900004780000447D4000004080847D00007F71
:1032A000102844000000417F4000007C041804788E
:1032B000007C0804047800384444443800FC24248A
:1032C00024180018242418FC007C08040408004872
:1032D0005454542000043F444020003C4040207C93
:1032E000001C2040201C003C4030403C0044281082
:1032F0002844001CA0A0A07C004464544C44141436
:10330000141414140000000000000000000000006D
:1033100000000000000000F8000000000000003382
:103320003000000000100C06100C06000000000029
:103330000000000040C07840C0784000043F040412
:103340003F040400007088FC08300000001820FFD3
:10335000211E0000F008F000E018000000211C030E
:103360001E211E0000F00888700000001E2123248A
:103370001927211010160E000000000000000000A8
:1033800000000000000000E0180402000000000738
:103390001820400000020418E0000000004020183F
:1033A00007000000404080F0804040000202010F12
:1033B00001020200000000F0000000000101011FF6
:1033C00001010100000000000000000080B070005A
:1033D00000000000000000000000000000010101EA
:1033E0000101010100000000000000000030300079
:1033F0000000000000000000806018040060180653
:103400000100000000E010080810E000000F10208C
:1034100020100F00001010F8000000000020203FD6
:103420002020000000700808088870000030282460
:103430002221300000300888884830000018202001
:1034400020110E000000C02010F800000007042426
:10345000243F240000F8088888080800001921206B
:1034600020110E0000E0108888180000000F1120C5
:1034700020110E0000380808C83808000000003F7E
:10348000000000000070880808887000001C2221DD
:1034900021221C0000E010080810E000000031228A
:1034A00022110F00000000C0C0000000000000302A
:1034B000300000000000008000000000000080607C
:1034C00000000000000080402010080000010204FD
:1034D00008102000404040404040400004040404E4
:1034E00004040400000810204080000000201008A0
:1034F00004020100007048080808F00000000030D5
:1035000036010000C030C828E810E0000718272462
:1035100023140B000000C038E0000000203C230210
:103520000227382008F8888888700000203F202073
:1035300020110E00C03008080808380007182020A5
:103540002010080008F808080810E000203F20209C
:1035500020100F0008F88888E8081000203F20207D
:103560002320180008F88888E8081000203F200071
:1035700003000000C03008080838000007182020A9
:10358000221E020008F808000008F808203F210168
:1035900001213F20000808F8080800000020203F13
:1035A0002020000000000808F8080800C080808083
:1035B0007F00000008F888C028180800203F20017C
:1035C0002638200008F8080000000000203F2020D6
:1035D0002020300008F8F800F8F80800203F003FED
:1035E000003F200008F830C00008F808203F200005
:1035F00007183F00E01008080810E0000F10202016
:1036000020100F0008F808080808F000203F2101EA
:1036100001010000E01008080810E0000F18242441
:1036200038504F0008F8888888887000203F2000B4
:10363000030C30200070880808083800003820216A
:1036400021221C00180808F8080818000000203F74
:103650002000000008F808000008F808001F2020DB
:1036600020201F000878880000C8380800000738AC
:103670000E010000F80800F80008F800033C0700FD
:10368000073C0300081868808068180820302C0365
:10369000032C30200838C800C83808000000203F3C
:1036A0002000000010080808C8380800203826212B
:1036B00020201800000000FE020202000000007F2F
:1036C00040404000000C30C000000000000000013D
:1036D0000638C00000020202FE0000000040404028
:1036E0007F0000000000040202020400000000004D
:1036F00000000000000000000000000080808080CA
:1037000080808080000202040000000000000000B1
:10371000000000000000808080800000001924224A
:1037200022223F2008F8008080000000003F112086
:1037300020110E000000008080800000000E11208B
:1037400020201100000000808088F800000E112069
:1037500020103F200000808080800000001F222277
:1037600022221300008080F0888888180020203FE3
:10377000202000000000808080808000006B9494F6
:103780009493600008F8008080800000203F2100B2
:1037900000203F2000809898000000000020203F7B
:1037A00020200000000000809898000000C0808069
:1037B000807F000008F8000080808000203F240205
:1037C0002D302000000808F8000000000020203FF5
:1037D000202000008080808080808000203F2000AA
:1037E0003F20003F8080008080800000203F21003B
:1037F00000203F200000808080800000001F2020EB
:1038000020201F00808000808000000080FFA12019
:1038100020110E000000008080808000000E11202A
:1038200020A0FF80808080008080800020203F21B9
:10383000200001000000808080808000003324246C
:1038400024241900008080E0808000000000001F18
:10385000202000008080000000808000001F2020C9
:1038600020103F20808080000080808000010E308A
:103870000806010080800080008080800F300C03EB
:103880000C300F0000808000808080000020312EEE
:103890000E312000808080000080808080818E70CA
:1038A0001806010000808080808080000021302C7C
:1038B0002221300000000000807C02020000000095
:1038C000003F404000000000FF000000000000003A
:1038D000FF0000000002027C800000000040403F2A
:1038E00000000000000601010202040400000000C4
:1038F00000000000000000000000000001020304BE
:103900000607080900000000010203042C39000822
:10391000000000205C0000005825000888390008DD
:103920005C0000200C0A0000682500080000000070
:103930000000000013000000070000000E0000005F
:103940000A0000001A000000000000000000000053
:103950000000000000000000000000000000000067
:1039600000000000000000000000000000003132F4
:103970003334353600000000000000000000000075
:083980000000000000A24A044F
:0400000508000131BD
:00000001FF
